:020000040800F2
:10000000E006002089010008910100089301000822
:100010009501000897010008990100080000000000
:100020000000000000000000000000009B0100082C
:100030009D010008000000009F01000891070008D2
:10004000A3010008A3010008A3010008A301000800
:10005000A3010008A3010008A3010008A3010008F0
:10006000A3010008A3010008A3010008A3010008E0
:10007000A3010008A3010008A3010008A3010008D0
:10008000A3010008A3010008A3010008A3010008C0
:10009000A3010008A3010008A3010008A3010008B0
:1000A000A3010008A3010008A3010008A3010008A0
:1000B000A3010008A3010008A3010008A301000890
:1000C000A3010008A3010008A3010008A301000880
:1000D000A3010008A3010008A3010008A301000870
:1000E000A3010008A3010008A301000800F002F822
:1000F00000F03AF80AA090E8000C82448344AAF188
:100100000107DA4501D100F02FF8AFF2090EBAE885
:100110000F0013F0010F18BFFB1A43F0010318473B
:10012000CC0A0000EC0A0000103A24BF78C878C15D
:10013000FAD8520724BF30C830C144BF04680C60ED
:10014000704700000023002400250026103A28BF35
:1001500078C1FBD8520728BF30C148BF0B60704739
:100160001FB51FBD10B510BD00F031F81146FFF7E7
:10017000F7FF00F09BFC00F04FF803B4FFF7F2FF2D
:1001800003BC00F057F800000948804709480047C1
:10019000FEE7FEE7FEE7FEE7FEE7FEE7FEE7FEE737
:1001A000FEE7FEE704480549054A064B7047000094
:1001B000D5080008ED000008E0000020E00600205F
:1001C000E0020020E002002070477047704775464B
:1001D00000F02CF8AE4605006946534620F00700B3
:1001E000854618B020B5FFF7DDFFBDE820404FF091
:1001F00000064FF000074FF000084FF0000BAC4630
:10020000ACE8C009ACE8C009ACE8C009ACE8C0097A
:1002100021F007018D46704710B50446AFF300800A
:100220002046BDE81040FFF7A8BF00000048704717
:100230007000002001491820ABBEFEE72600020036
:100240007047000080B500F0B3FA40F20000C2F23F
:10025000000000684DF68361C4F21B31A0FB011061
:10026000800C00F06BFA80BD80B582B00190FFE792
:100270000198411E019128B1FFE74FF47A7000F018
:1002800003F8F5E702B080BD81B00090009840F21D
:10029000D401C2F200010860FFE740F2D400C2F2CC
:1002A0000000006808B1FFE7F7E701B07047000001
:1002B00080B584B001210191084600F08DF90199C3
:1002C0001C2000F089F94FF6FF70ADF80C001020EB
:1002D0008DF80F0003208DF80E0040F60000C4F2E8
:1002E000010003A9029100F011F802994FF40050A7
:1002F000ADF80C0028208DF80F0041F20000C4F288
:10030000010000F003F804B080BD000088B0079041
:1003100006910020059004900390029001900090B7
:100320000698C07800F00F0005900698C078C006C7
:10033000002806D5FFE706988178059808430590C0
:10034000FFE70698007800284BD0FFE70798006881
:10035000019000200390FFE7039807283DD8FFE7AE
:10036000039901208840029006980088029908406D
:1003700004900498029988422AD1FFE703988000EC
:10038000029002990F2088400090009901988843BC
:1003900001900598029900FA01F101980843019033
:1003A0000698C078282806D1FFE7039901208840E5
:1003B000079948610BE00698C078482806D1FFE706
:1003C00003990120884007990861FFE7FFE7FFE7ED
:1003D000FFE7039801300390BEE701980799086092
:1003E000FFE706980088B0F5807F50DBFFE70798AD
:1003F0004068019000200390FFE70398072842D847
:10040000FFE7039800F10801012088400290069858
:1004100000880299084004900498029988422DD1DE
:10042000FFE703988000029002990F208840009017
:1004300000990198884301900598029900FA01F10A
:100440000198084301900698C078282808D1FFE752
:10045000039800F108010120884007994861FFE7EF
:100460000698C078482808D1FFE7039800F10801F2
:100470000120884007990861FFE7FFE7FFE703983D
:1004800001300390B9E7019807994860FFE708B089
:100490007047000086B005908DF81310002003907F
:1004A0000290019000909DF817000006002806D5E4
:1004B000FFE71C20C4F201000068019005E0042061
:1004C000C4F2010000680190FFE70598C0F3034003
:1004D0000090BDF814000390059800F44010B0F5AA
:1004E000401F0CD1FFE7019820F0706001900421BB
:1004F000C4F20101086820F07060086023E09DF8F4
:100500001600C00600280DD5FFE70099032088409B
:1005100002900299019888430190019840F0706020
:1005200001900FE00398059A6FF00F0101EA524124
:1005300000FA01F1019888430190019840F0706041
:100540000190FFE7FFE79DF8130060B1FFE7039814
:10055000059A6FF00F0101EA524100FA01F101988A
:1005600008430190FFE79DF817000006002806D514
:10057000FFE701981C21C4F20101086005E0019821
:100580000421C4F201010860FFE706B070470000D3
:1005900082B00190ADF8021000208DF801000198A2
:1005A0008068BDF80210084204D0FFE701208DF8F2
:1005B000010003E000208DF80100FFE79DF8010035
:1005C00002B0704782B00190ADF80210BDF8020091
:1005D0000199C86002B0704782B001908DF8031095
:1005E0009DF8030048B1FFE7019A41F21801C4F2F7
:1005F000020108681043086008E0019A41F21801FE
:10060000C4F20201086890430860FFE702B0704737
:1006100080B500F001F880BD84B000200390029006
:1006200041F20001C4F20201086840F48030086021
:10063000FFE741F20000C4F20200006800F400305D
:100640000290039801300390FFE702990020019087
:1006500039B9FFE70398B0F5A06018BF01200190F9
:10066000FFE70198C0070028E3D1FFE741F200004F
:10067000C4F2020000688003002803D5FFE70120D0
:10068000029002E000200290FFE70298012851D179
:10069000FFE742F20001C4F20201086840F01000D6
:1006A0000860086820F007000860086840F0020051
:1006B000086041F20401C4F2020100910868086078
:1006C00008680860086840F480600860086820F4E2
:1006D0007C100860086840F4E810086041F20001EE
:1006E000C4F20201086840F080700860FFE741F240
:1006F0000000C4F2020000688001002801D4FFE776
:10070000F5E741F20401C4F20201086820F0030099
:100710000860086840F002000860FFE741F204004A
:10072000C4F20200006800F00C00082801D0FFE7C6
:10073000F4E700E0FFE704B07047000080B582B046
:10074000009000980138B0F1807F03D3FFE70120CB
:10075000019019E0009801384EF21401CEF2000128
:1007600008604FF0FF300F2100F0E8F84EF218015A
:10077000CEF20001002008604EF21002CEF200021C
:10078000072111600190FFE7019802B080BD0000D1
:1007900040F2D400C2F20000006840B1FFE740F22E
:1007A000D401C2F20001086801380860FFE7704711
:1007B00084B0002003900290019041F20400C4F242
:1007C0000200006800F00C0003900398009040B114
:1007D000FFE7009804280ED0FFE70098082814D0FF
:1007E00056E040F20001C2F2000141F20020C0F2E6
:1007F0007A00086056E040F20001C2F2000141F2C6
:100800000020C0F27A0008604CE041F20400C4F21B
:100810000200016801F470110291006800F4803058
:1008200001900299022000EB91400290019860B97A
:10083000FFE7029840F60011C0F23D01484340F244
:100840000001C2F20001086021E041F20400C4F29C
:1008500002000068800300280CD5FFE7029840F6EC
:100860000011C0F23D01484340F20001C2F2000114
:1008700008600BE0029841F20021C0F27A0148437F
:1008800040F20001C2F200010860FFE7FFE709E063
:1008900040F20001C2F2000141F20020C0F27A00F1
:1008A0000860FFE741F20400C4F202000068C0B231
:1008B000010940F6DA30C0F60000405C0390039A6C
:1008C00040F20001C2F200010868D040086004B0A4
:1008D0007047000080B541F20002C4F202021068C5
:1008E00040F00100106041F20401C4F20201086806
:1008F0000023CFF6FF031840086010684FF6FF731F
:10090000CFF6F66318401060106820F48020106065
:10091000086820F4FE00086041F20801C4F20201F8
:100920004FF41F000860FFF773FE4EF60851CEF239
:1009300000014FF00060086080BD000082B08DF8BB
:10094000070000919DF9070000280AD4FFE70098EE
:1009500000019DF907104EF20042CEF200028854C9
:100960000BE0009800019DF8071001F00F014EF612
:100970001452CEF200028854FFE702B07047000024
:1009800080B582B0019040F2D101C2F20001002096
:100990000870FFE740F2D100C2F2000000780D2895
:1009A0001DDCFFE740F2D100C2F20000017840F206
:1009B0000400C2F2000030F8111040F60000C4F24A
:1009C0000100FFF7FFFD0198FFF74EFCFFE740F243
:1009D000D101C2F20001087801300870DAE702B0F4
:1009E00080BD000080B582B0019040F2D101C2F21A
:1009F000000100200870FFE740F2D100C2F20000C1
:100A0000007801281DDCFFE740F2D100C2F20000AF
:100A1000017840F22A00C2F2000030F8111040F6CE
:100A20000000C4F20100FFF7CDFD0198FFF71CFCA8
:100A3000FFE740F2D101C2F20001087801300870EE
:100A4000DAE702B080BD000080B582B0019040F2CC
:100A5000D101C2F2000100200870FFE740F2D1008E
:100A6000C2F2000000780D281DDCFFE740F2D10043
:100A7000C2F20000017840F22E00C2F2000030F80D
:100A8000111040F60000C4F20100FFF79BFD019831
:100A9000FFF7EAFBFFE740F2D101C2F2000108785C
:100AA00001300870DAE702B080BD000080B584B084
:100AB000002002900390FFF7C5FBFFF7F9FB40F21F
:100AC0000020C0F230000121FFF7E4FC029940F65B
:100AD0000000C4F20100FFF775FD40F2D801C2F238
:100AE000000170200880FFE741F20000C4F201001D
:100AF0004FF40051FFF74CFDC0B1FFE740F2D000CA
:100B0000C2F200000078052807D1FFE740F2D001CB
:100B1000C2F200010020087007E040F2D001C2F2EA
:100B20000001087801300870FFE7FFE740F2D000CD
:100B3000C2F200000090017840F22000C2F20000F2
:100B4000019030F81100FFF74DFF009901980978E6
:100B500030F81100FFF778FF00990198097830F814
:100B6000110000F009F800990198097830F8110097
:100B7000FFF706FFB8E7000080B582B0019040F2B1
:100B8000D101C2F2000100200870FFE740F2D1005D
:100B9000C2F20000007810281DDCFFE740F2D1000F
:100BA000C2F20000017840F24A00C2F2000030F8C0
:100BB000111040F60000C4F20100FFF703FD019898
:100BC000FFF752FBFFE740F2D101C2F200010878C3
:100BD00001300870DAE702B080BD000000000000BC
:100BE0000000010203040607080900000C0C0008BD
:100BF000000000206C00000028010008780C0008AC
:100C000070000020700600004401000800A24A04A1
:100C100000004000E000F001F803FC07FE0FFF1F9A
:100C2000FE0FFC07F803F001E00040006400C8007C
:100C3000F401E803D0070000FFFF000001000300FB
:100C400007000F001F003F007F00FF00FF01FF03B0
:100C5000FF07FF0FFF1F00000100030007000E0049
:100C60001C0038007000E000C00180030007000E87
:080C7000001C009800900080B8
:040000050800018965
:00000001FF
