:020000040800F2
:10000000C8070020C9010008D1010008D301000879
:10001000D5010008D7010008D90100080000000040
:10002000000000000000000000000000DB010008EC
:10003000DD01000800000000DF010008F5070008EE
:10004000E3010008E3010008E3010008E301000800
:10005000E3010008E3010008E3010008E3010008F0
:10006000E3010008E3010008E3010008E3010008E0
:10007000E3010008E3010008E3010008E3010008D0
:10008000E3010008E3010008E3010008E3010008C0
:10009000E3010008E3010008E3010008E3010008B0
:1000A000E3010008E3010008E3010008E3010008A0
:1000B000E3010008E3010008E3010008E301000890
:1000C000E3010008E3010008E3010008E301000880
:1000D000E3010008E3010008E3010008E301000870
:1000E000E3010008E3010008E301000800F002F862
:1000F00000F05AF80AA090E8000C82448344AAF168
:100100000107DA4501D100F04FF8AFF2090EBAE865
:100110000F0013F0010F18BFFB1A43F0010318473B
:100120006C0C00008C0C00000A444FF0000C10F81E
:10013000013B13F0070408BF10F8014B1D1108BF65
:1001400010F8015B641E05D010F8016B641E01F805
:10015000016BF9D113F0080F1EBF10F8014BAD1C55
:100160000C1B09D16D1E58BF01F801CBFAD505E073
:1001700014F8016B01F8016B6D1EF9D59142D6D3CD
:10018000704700000023002400250026103A28BFF5
:1001900078C1FBD8520728BF30C148BF0B607047F9
:1001A0001FB51FBD10B510BD00F031F81146FFF7A7
:1001B000F7FF00F0D5FC00F04FF803B4FFF7F2FFB3
:1001C00003BC00F057F80000094880470948004781
:1001D000FEE7FEE7FEE7FEE7FEE7FEE7FEE7FEE7F7
:1001E000FEE7FEE704480549054A064B7047000054
:1001F00039090008ED000008C8010020C8070020E8
:10020000C8030020C8030020704770477047754638
:1002100000F02CF8AE4605006946534620F0070072
:10022000854618B020B5FFF7DDFFBDE820404FF050
:1002300000064FF000074FF000084FF0000BAC46EF
:10024000ACE8C009ACE8C009ACE8C009ACE8C0093A
:1002500021F007018D46704710B50446AFF30080CA
:100260002046BDE81040FFF7A8BF000000487047D7
:100270005801002001491820ABBEFEE7260002000D
:100280007047000080B500F0C5FA40F20000C2F2ED
:10029000000000684DF68361C4F21B31A0FB011021
:1002A000800C00F07DFA80BD80B582B00190FFE740
:1002B0000198411E019128B1FFE74FF47A7000F0D8
:1002C00003F8F5E702B080BD81B00090009840F2DD
:1002D000BC11C2F200010860FFE740F2BC10C2F29C
:1002E0000000006808B1FFE7F7E701B070470000C1
:1002F00080B586B001210091084600F09FF9009971
:100300001C2000F09BF94FF6FF700190ADF814002F
:10031000102002908DF81700032003908DF816002E
:1003200040F60000C4F2010005A9049100F020F895
:10033000019B029A03980499ADF814308DF81720A8
:100340008DF8160040F60040C4F2010000F010F8ED
:1003500004994FF40050ADF8140028208DF81700D0
:1003600041F20000C4F2010000F002F806B080BDC6
:1003700088B00790069100200590049003900290A9
:10038000019000900698C07800F00F000590069844
:10039000C078C006002806D5FFE706988178059842
:1003A00008430590FFE70698007800284BD0FFE748
:1003B00007980068019000200390FFE70398072842
:1003C0003DD8FFE7039901208840029006980088F5
:1003D0000299084004900498029988422AD1FFE7C4
:1003E00003988000029002990F20884000900099A5
:1003F0000198884301900598029900FA01F101984B
:10040000084301900698C078282806D1FFE7039991
:1004100001208840079948610BE00698C078482879
:1004200006D1FFE703990120884007990861FFE79B
:10043000FFE7FFE7FFE7039801300390BEE701986D
:1004400007990860FFE706980088B0F5807F50DBC9
:10045000FFE707984068019000200390FFE70398AA
:10046000072842D8FFE7039800F1080101208840DF
:100470000290069800880299084004900498029916
:1004800088422DD1FFE703988000029002990F2047
:10049000884000900099019888430190059802993E
:1004A00000FA01F10198084301900698C0782828C5
:1004B00008D1FFE7039800F108010120884007995F
:1004C0004861FFE70698C078482808D1FFE70398FD
:1004D00000F108010120884007990861FFE7FFE764
:1004E000FFE7039801300390B9E701980799486046
:1004F000FFE708B07047000086B005908DF8131034
:10050000002003900290019000909DF817000006D3
:10051000002806D5FFE71C20C4F201000068019006
:1005200005E00420C4F2010000680190FFE705988F
:10053000C0F303400090BDF814000390059800F448
:100540004010B0F5401F0CD1FFE7019820F070601B
:1005500001900421C4F20101086820F07060086075
:1005600023E09DF81600C00600280DD5FFE700998E
:1005700003208840029002990198884301900198D5
:1005800040F0706001900FE00398059A6FF00F0142
:1005900001EA524100FA01F1019888430190019863
:1005A00040F070600190FFE7FFE79DF8130060B135
:1005B000FFE70398059A6FF00F0101EA524100FA34
:1005C00001F1019808430190FFE79DF8170000062C
:1005D000002806D5FFE701981C21C4F2010108603C
:1005E00005E001980421C4F201010860FFE706B0AC
:1005F0007047000082B00190ADF8021000208DF825
:10060000010001988068BDF80210084204D0FFE79D
:1006100001208DF8010003E000208DF80100FFE7C4
:100620009DF8010002B0704782B00190ADF8021051
:10063000BDF802000199C86002B0704782B0019015
:100640008DF803109DF8030048B1FFE7019A41F2CD
:100650001801C4F2020108681043086008E0019A1A
:1006600041F21801C4F20201086890430860FFE7F4
:1006700002B0704780B500F001F880BD84B0002062
:100680000390029041F20001C4F20201086840F4B4
:1006900080300860FFE741F20000C4F20200006809
:1006A00000F400300290039801300390FFE70299B4
:1006B0000020019039B9FFE70398B0F5A06018BF9A
:1006C00001200190FFE70198C0070028E3D1FFE770
:1006D00041F20000C4F2020000688003002803D544
:1006E000FFE70120029002E000200290FFE702985D
:1006F000012851D1FFE742F20001C4F2020108686B
:1007000040F010000860086820F0070008600868E2
:1007100040F00200086041F20401C4F202010091BD
:100720000868086008680860086840F4806008602D
:10073000086820F47C100860086840F4E81008603D
:1007400041F20001C4F20201086840F080700860C4
:10075000FFE741F20000C4F20200006880010028B7
:1007600001D4FFE7F5E741F20401C4F20201086891
:1007700020F003000860086840F002000860FFE70E
:1007800041F20400C4F20200006800F00C000828E6
:1007900001D0FFE7F4E700E0FFE704B07047000096
:1007A00080B582B0009000980138B0F1807F03D30B
:1007B000FFE70120019019E0009801384EF2140182
:1007C000CEF2000108604FF0FF300F2100F0E8F892
:1007D0004EF21801CEF20001002008604EF2100225
:1007E000CEF20002072111600190FFE7019802B0EC
:1007F00080BD000040F2BC10C2F20000006840B1B1
:10080000FFE740F2BC11C2F200010868013808603D
:10081000FFE7704784B0002003900290019041F2FE
:100820000400C4F20200006800F00C00039003987A
:10083000009040B1FFE7009804280ED0FFE7009831
:10084000082814D056E040F20001C2F2000141F243
:100850000020C0F27A00086056E040F20001C2F2C7
:10086000000141F20020C0F27A0008604CE041F241
:100870000400C4F20200016801F4701102910068E2
:1008800000F4803001900299022000EB9140029028
:10089000019860B9FFE7029840F60011C0F23D01EF
:1008A000484340F20001C2F20001086021E041F239
:1008B0000400C4F202000068800300280CD5FFE7A2
:1008C000029840F60011C0F23D01484340F2000199
:1008D000C2F2000108600BE0029841F20021C0F270
:1008E0007A01484340F20001C2F200010860FFE7CC
:1008F000FFE709E040F20001C2F2000141F20020EE
:10090000C0F27A000860FFE741F20400C4F202007E
:100910000068C0B2010940F67C50C0F60000405C9F
:100920000390039A40F20001C2F200010868D0402F
:10093000086004B07047000080B541F20002C4F2C4
:100940000202106840F00100106041F20401C4F29C
:10095000020108680023CFF6FF0318400860106802
:100960004FF6FF73CFF6F66318401060106820F45E
:1009700080201060086820F4FE00086041F2080141
:10098000C4F202014FF41F000860FFF773FE4EF639
:100990000851CEF200014FF00060086080BD0000F9
:1009A00082B08DF8070000919DF9070000280AD455
:1009B000FFE7009800019DF907104EF20042CEF2C9
:1009C000000288540BE0009800019DF8071001F028
:1009D0000F014EF61452CEF200028854FFE702B027
:1009E0007047000080B582B0019040F2BA11C2F2A7
:1009F000000100200870FFE740F2BA10C2F20000C8
:100A000000780D282CDCFFE740F2BA10C2F200009B
:100A10000090017840F20400C2F2000030F811109A
:100A200040F60000C4F20100FFF7FEFD00980178D7
:100A300040F22000C2F2000030F8111040F60040F1
:100A4000C4F20100FFF7F0FD0198FFF72DFCFFE76E
:100A500040F2BA11C2F20001087801300870CBE709
:100A600002B080BD80B584B0039040F2BA11C2F2EA
:100A7000000100200870FFE740F2BA10C2F2000047
:100A8000007801282ADCFFE740F2BA10C2F2000029
:100A90000190017840F24000C2F20000029030F86C
:100AA000111040F60000C4F20100FFF7BDFD0199EE
:100AB0000298097830F8111040F60040C4F20100A5
:100AC000FFF7B2FD0398FFF7EFFBFFE740F2BA1123
:100AD000C2F20001087801300870CDE704B080BD93
:100AE00080B582B0019040F2BA11C2F2000100203C
:100AF0000870FFE740F2BA10C2F20000007819282F
:100B00002CDCFFE740F2BA10C2F20000009001783E
:100B100040F24400C2F2000030F8111040F600002C
:100B2000C4F20100FFF780FD0098017840F27800E0
:100B3000C2F2000030F8111040F60040C4F201008B
:100B4000FFF772FD0198FFF7AFFBFFE740F2BA1124
:100B5000C2F20001087801300870CBE702B080BD16
:100B600080B584B0002002900390FFF78BFBFFF765
:100B7000BFFB40F20020C0F230000121FFF7BCFCB7
:100B8000029940F60000C4F20100FFF74DFDFFE7B7
:100B900041F20000C4F201004FF40051FFF72AFDBA
:100BA000014640F2B910C2F200000170007840F234
:100BB000C011C2F200010978884227D0FFE740F255
:100BC000B910C2F20000017840F2C012C2F2000275
:100BD00011700078012818D1FFE740F2B810C2F276
:100BE00000000078042807D1FFE740F2B811C2F2F4
:100BF00000010020087007E040F2B811C2F20001C5
:100C0000087801300870FFE7FFE7FFE740F2B8100F
:100C1000C2F2000000780146019104282DD8019904
:100C2000DFE801F0030B131B230040F23C00C2F28B
:100C300000000068FFF716FF1FE040F23C00C2F220
:100C40000000006800F05AF817E040F23C00C2F2E1
:100C500000000068FFF7C6FE0FE040F23C00C2F261
:100C60000000006800F00AF807E040F23C00C2F221
:100C700000000068FFF734FFFFE789E780B582B026
:100C8000019040F2BA11C2F2000100200870FFE7A3
:100C900040F2BA10C2F20000007819282CDCFFE7FD
:100CA00040F2BA10C2F200000090017840F2AC00AD
:100CB000C2F2000030F8111040F60000C4F201004A
:100CC000FFF7B2FC0098017840F2E000C2F20000A9
:100CD00030F8111040F60040C4F20100FFF7A4FC08
:100CE0000198FFF7E1FAFFE740F2BA11C2F2000102
:100CF000087801300870CBE702B080BD80B582B0C3
:100D0000019040F2BA11C2F2000100200870FFE722
:100D100040F2BA10C2F2000000780F282CDCFFE786
:100D200040F2BA10C2F200000090017840F2341094
:100D3000C2F2000030F8111040F60040C4F2010089
:100D4000FFF772FC0098017840F21410C2F2000024
:100D500030F8111040F60000C4F20100FFF764FC07
:100D60000198FFF7A1FAFFE740F2BA11C2F20001C1
:100D7000087801300870CBE702B080BD00000000A9
:100D8000000000000102030406070809AC0D00087A
:100D9000000000205401000028010008880E00080F
:100DA0005801002070060000840100081124A24AA6
:100DB00004124012E01814F001F803FC07FE0FFFC4
:100DC0001FFE0FFC07F803F001E018211280101835
:100DD000C001E003F007F80FFA1FFB3FFA1FF80FFE
:100DE000F007E003C00180526423FFFF12011203E9
:100DF0001207120F121F123F127F12FF1808FF0175
:100E0000FF03FF07FF4C19041A070C1B01FF181AF8
:100E10003F201A0F281A03304934120B121B123BC1
:100E2000127B12FB180AFB01FB03FB07FB0FFB64A1
:100E300019041A0F0C1A0314191C1A3B247A0B34C8
:100E400012021204120812101A209CAA80111A0809
:100E500008120219961A401C790F59340913329955
:100E6000278936693429D0120E121C1238127012DA
:100E7000E019EE691112986A90BC0A101A1E123815
:080E8000123002002000000006
:04000005080001C925
:00000001FF
