:020000040800F2
:10000000C8070020C9010008D1010008D301000879
:10001000D5010008D7010008D90100080000000040
:10002000000000000000000000000000DB010008EC
:10003000DD01000800000000DF010008F1060008F3
:10004000E3010008E3010008E3010008E301000800
:10005000E3010008E3010008E3010008E3010008F0
:10006000E3010008E3010008E3010008E3010008E0
:10007000E3010008E3010008E3010008E3010008D0
:10008000E3010008E3010008E3010008E3010008C0
:10009000E3010008E3010008E3010008E3010008B0
:1000A000E3010008E3010008E3010008E3010008A0
:1000B000E3010008E3010008E3010008E301000890
:1000C000E3010008E3010008E3010008E301000880
:1000D000E3010008E3010008E3010008E301000870
:1000E000E3010008E3010008E301000800F002F862
:1000F00000F05AF80AA090E8000C82448344AAF168
:100100000107DA4501D100F04FF8AFF2090EBAE865
:100110000F0013F0010F18BFFB1A43F0010318473B
:10012000C80B0000E80B00000A444FF0000C10F868
:10013000013B13F0070408BF10F8014B1D1108BF65
:1001400010F8015B641E05D010F8016B641E01F805
:10015000016BF9D113F0080F1EBF10F8014BAD1C55
:100160000C1B09D16D1E58BF01F801CBFAD505E073
:1001700014F8016B01F8016B6D1EF9D59142D6D3CD
:10018000704700000023002400250026103A28BFF5
:1001900078C1FBD8520728BF30C148BF0B607047F9
:1001A0001FB51FBD10B510BD00F031F81146FFF7A7
:1001B000F7FF00F0EFFC00F04FF803B4FFF7F2FF99
:1001C00003BC00F057F80000094880470948004781
:1001D000FEE7FEE7FEE7FEE7FEE7FEE7FEE7FEE7F7
:1001E000FEE7FEE704480549054A064B7047000054
:1001F00035080008ED000008C8010020C8070020ED
:10020000C8030020C8030020704770477047754638
:1002100000F02CF8AE4605006946534620F0070072
:10022000854618B020B5FFF7DDFFBDE820404FF050
:1002300000064FF000074FF000084FF0000BAC46EF
:10024000ACE8C009ACE8C009ACE8C009ACE8C0093A
:1002500021F007018D46704710B50446AFF30080CA
:100260002046BDE81040FFF7A8BF000000487047D7
:100270005801002001491820ABBEFEE7260002000D
:100280007047000080B500F043FA40F20000C2F26F
:10029000000000684DF68361C4F21B31A0FB011021
:1002A000800C00F0FBF980BD80B582B00190FFE7C3
:1002B0000198411E019128B1FFE74FF47A7000F0D8
:1002C00003F8F5E702B080BD81B00090009840F2DD
:1002D000BC11C2F200010860FFE740F2BC10C2F29C
:1002E0000000006808B1FFE7F7E701B070470000C1
:1002F00080B586B01C20012100F01EF94FF6FF707A
:100300000190ADF81400102002908DF81700032022
:1003100003908DF8160040F60000C4F2010005A914
:10032000049100F021F8019B029A03980499ADF81A
:1003300014308DF817208DF8160040F60040C4F2F6
:10034000010000F011F804994FF40050ADF81400CA
:1003500028208DF8170041F20000C4F2010000F0DF
:1003600003F806B080BD000088B007900691002019
:100370000590049003900290019000900698C07838
:1003800000F00F0005900698C078C006002806D53A
:10039000FFE706988178059808430590FFE70698DF
:1003A000007800284BD0FFE70798006801900020F4
:1003B0000390FFE7039807283DD8FFE70399012042
:1003C000884002900698008802990840049004989A
:1003D000029988422AD1FFE703988000029002998F
:1003E0000F2088400090009901988843019005985B
:1003F000029900FA01F10198084301900698C0782B
:10040000282806D1FFE70399012088400799486111
:100410000BE00698C078482806D1FFE70399012031
:10042000884007990861FFE7FFE7FFE7FFE70398C8
:1004300001300390BEE7019807990860FFE706982E
:100440000088B0F5807F50DBFFE707984068019097
:1004500000200390FFE70398072842D8FFE703989E
:1004600000F1080101208840029006980088029956
:10047000084004900498029988422DD1FFE7039820
:100480008000029002990F20884000900099019806
:10049000884301900598029900FA01F101980843F8
:1004A00001900698C078282808D1FFE7039800F14A
:1004B00008010120884007994861FFE70698C07845
:1004C000482808D1FFE7039800F10801012088407F
:1004D00007990861FFE7FFE7FFE703980130039002
:1004E000B9E7019807994860FFE708B07047000036
:1004F00082B00190ADF8021000208DF80100019843
:100500008068BDF80210084204D0FFE701208DF892
:10051000010003E000208DF80100FFE79DF80100D5
:1005200002B0704782B00190ADF80210BDF8020031
:100530000199C86002B0704782B001908DF8031035
:100540009DF8030048B1FFE7019A41F21801C4F297
:10055000020108681043086008E0019A41F218019E
:10056000C4F20201086890430860FFE702B07047D8
:1005700080B500F001F880BD84B0002003900290A7
:1005800041F20001C4F20201086840F480300860C2
:10059000FFE741F20000C4F20200006800F40030FE
:1005A0000290039801300390FFE702990020019028
:1005B00039B9FFE70398B0F5A06018BF012001909A
:1005C000FFE70198C0070028E3D1FFE741F20000F0
:1005D000C4F2020000688003002803D5FFE7012071
:1005E000029002E000200290FFE70298012851D11A
:1005F000FFE742F20001C4F20201086840F0100077
:100600000860086820F007000860086840F00200F1
:10061000086041F20401C4F2020100910868086018
:1006200008680860086840F480600860086820F482
:100630007C100860086840F4E810086041F200018E
:10064000C4F20201086840F080700860FFE741F2E0
:100650000000C4F2020000688001002801D4FFE716
:10066000F5E741F20401C4F20201086820F003003A
:100670000860086840F002000860FFE741F20400EB
:10068000C4F20200006800F00C00082801D0FFE767
:10069000F4E700E0FFE704B07047000080B582B0E7
:1006A000009000980138B0F1807F03D3FFE701206C
:1006B000019019E0009801384EF21401CEF20001C9
:1006C00008604FF0FF300F2100F0E8F84EF21801FB
:1006D000CEF20001002008604EF21002CEF20002BD
:1006E000072111600190FFE7019802B080BD000072
:1006F00040F2BC10C2F20000006840B1FFE740F2D7
:10070000BC11C2F20001086801380860FFE77047B9
:1007100084B0002003900290019041F20400C4F2E2
:100720000200006800F00C0003900398009040B1B4
:10073000FFE7009804280ED0FFE70098082814D09F
:1007400056E040F20001C2F2000141F20020C0F286
:100750007A00086056E040F20001C2F2000141F266
:100760000020C0F27A0008604CE041F20400C4F2BC
:100770000200016801F470110291006800F48030F9
:1007800001900299022000EB91400290019860B91B
:10079000FFE7029840F60011C0F23D01484340F2E5
:1007A0000001C2F20001086021E041F20400C4F23D
:1007B00002000068800300280CD5FFE7029840F68D
:1007C0000011C0F23D01484340F20001C2F20001B5
:1007D00008600BE0029841F20021C0F27A01484320
:1007E00040F20001C2F200010860FFE7FFE709E004
:1007F00040F20001C2F2000141F20020C0F27A0092
:100800000860FFE741F20400C4F202000068C0B2D1
:10081000010940F6D640C0F60000405C0390039A00
:1008200040F20001C2F200010868D040086004B044
:100830007047000080B541F20002C4F20202106865
:1008400040F00100106041F20401C4F202010868A6
:100850000023CFF6FF031840086010684FF6FF73BF
:10086000CFF6F66318401060106820F48020106006
:10087000086820F4FE00086041F20801C4F2020199
:100880004FF41F000860FFF773FE4EF60851CEF2DA
:1008900000014FF00060086080BD000082B08DF85C
:1008A000070000919DF9070000280AD4FFE700988F
:1008B00000019DF907104EF20042CEF2000288546A
:1008C0000BE0009800019DF8071001F00F014EF6B3
:1008D0001452CEF200028854FFE702B070470000C5
:1008E00080B582B0019040F2BA11C2F2000100203E
:1008F0000870FFE740F2BA10C2F2000000780D283D
:1009000031DCFFE740F2BA10C2F20000009001783B
:1009100040F20400C2F2000030F8111040F600006E
:10092000C4F20100FFF7FEFD0098017840F22000BC
:10093000C2F2000030F8111040F60040C4F201008D
:10094000FFF7F0FD00F012F808B1FFE70BE00198A7
:10095000FFF7AAFCFFE740F2BA11C2F200010878E3
:1009600001300870C6E702B080BD000080B582B0DB
:1009700000208DF8070041F20000C4F201004FF49E
:100980000051FFF7B5FD014640F2B910C2F2000078
:100990000170007840F2C011C2F20001097888426B
:1009A0002ED0FFE740F2B910C2F20000017840F209
:1009B000C012C2F200021170007801281FD1FFE7B7
:1009C0009DF80700B0FA80F040098DF8070040F26A
:1009D000B810C2F200000078042807D1FFE740F207
:1009E000B811C2F200010020087007E040F2B8110F
:1009F000C2F20001087801300870FFE7FFE7FFE767
:100A00009DF8070002B080BD80B584B0039040F22D
:100A1000BA11C2F2000100200870FFE740F2BA10DC
:100A2000C2F20000007801282FDCFFE740F2BA1084
:100A3000C2F200000190017840F24000C2F20000D2
:100A4000029030F8111040F60000C4F20100FFF7E8
:100A500069FD01990298097830F8111040F60040BC
:100A6000C4F20100FFF75EFDFFF780FF08B1FFE76A
:100A70000BE00398FFF718FCFFE740F2BA11C2F24F
:100A80000001087801300870C8E704B080BD00009C
:100A900080B582B0019040F2BA11C2F2000100208C
:100AA0000870FFE740F2BA10C2F20000007819287F
:100AB00031DCFFE740F2BA10C2F20000009001788A
:100AC00040F24400C2F2000030F8111040F600007D
:100AD000C4F20100FFF726FD0098017840F278008B
:100AE000C2F2000030F8111040F60040C4F20100DC
:100AF000FFF718FDFFF73AFF08B1FFE70BE0019899
:100B0000FFF7D2FBFFE740F2BA11C2F2000108780A
:100B100001300870C6E702B080BD000080B582B029
:100B200040F2B810C2F2000000780146019104289A
:100B30002DD80199DFE801F0030B131B230040F2CD
:100B40003C00C2F200000068FFF75EFF1FE040F2C9
:100B50003C00C2F200000068FFF79AFF17E040F285
:100B60003C00C2F20000006800F02AF80FE040F2FA
:100B70003C00C2F200000068FFF7B2FE07E040F25E
:100B80003C00C2F20000006800F060F8FFE702B02D
:100B900080BD000080B582B0002000900190FFF77A
:100BA00071FBFFF7A5FB009940F60000C4F20100BD
:100BB000FFF7B8FCFFE7FFF7D9FEFFF7AFFFFAE753
:100BC00080B582B0019040F2BA11C2F2000100205B
:100BD0000870FFE740F2BA10C2F20000007819284E
:100BE00031DCFFE740F2BA10C2F200000090017859
:100BF00040F2AC00C2F2000030F8111040F60000E4
:100C0000C4F20100FFF78EFC0098017840F2E0008A
:100C1000C2F2000030F8111040F60040C4F20100AA
:100C2000FFF780FCFFF7A2FE08B1FFE70BE0019899
:100C3000FFF73AFBFFE740F2BA11C2F20001087871
:100C400001300870C6E702B080BD000080B582B0F8
:100C5000019040F2BA11C2F2000100200870FFE7D3
:100C600040F2BA10C2F2000000780F2831DCFFE732
:100C700040F2BA10C2F200000090017840F2341045
:100C8000C2F2000030F8111040F60040C4F201003A
:100C9000FFF748FC0098017840F21410C2F20000FF
:100CA00030F8111040F60000C4F20100FFF73AFCE2
:100CB000FFF75CFE08B1FFE70BE00198FFF7F4FADD
:100CC000FFE740F2BA11C2F2000108780130087063
:100CD000C6E702B080BD0000000000000000010275
:100CE0000304060708090000080D000800000020A2
:100CF0005401000028010008E00D00085801002000
:100D000070060000840100081124A24A0412401257
:100D1000E01814F001F803FC07FE0FFF1FFE0FFCA4
:100D200007F803F001E018311202101407800FC019
:100D30001FE03FE27FE3FFE27FE03FC01F800F1232
:100D40000753026423FFFF12011A0311120F121F2F
:100D5000123F127F12FF1808FF01FF03FF07FF4C2D
:100D600019041A070C1B01FF181A3F2029391A030E
:100D70003049341223126312E3180EE301E303E354
:100D800007E30FE31FE33FE36419041A3F0C1A0F54
:100D9000141A031C19247A233412021204120812A2
:100DA000101A209CAA80111A080812021B01801830
:100DB0008A200F5934F92E4911B92B490F6934296A
:100DC000D0120E121C1238127012E06CC001801189
:100DD00012986A90BCCA621A592B11020080000056
:04000005080001C925
:00000001FF
